{
  "address": "0x5FbDB2315678afecb367f032d93F642f64180aa3",
  "abi": [
    {
      "inputs": [],
      "stateMutability": "nonpayable",
      "type": "constructor"
    },
    {
      "anonymous": false,
      "inputs": [
        {
          "indexed": true,
          "internalType": "address",
          "name": "admin",
          "type": "address"
        },
        {
          "indexed": true,
          "internalType": "address",
          "name": "addedBy",
          "type": "address"
        },
        {
          "indexed": false,
          "internalType": "uint256",
          "name": "timestamp",
          "type": "uint256"
        }
      ],
      "name": "AdminAdded",
      "type": "event"
    },
    {
      "anonymous": false,
      "inputs": [
        {
          "indexed": true,
          "internalType": "address",
          "name": "admin",
          "type": "address"
        },
        {
          "indexed": true,
          "internalType": "address",
          "name": "removedBy",
          "type": "address"
        },
        {
          "indexed": false,
          "internalType": "uint256",
          "name": "timestamp",
          "type": "uint256"
        }
      ],
      "name": "AdminRemoved",
      "type": "event"
    },
    {
      "anonymous": false,
      "inputs": [
        {
          "indexed": true,
          "internalType": "address",
          "name": "user",
          "type": "address"
        },
        {
          "indexed": true,
          "internalType": "address",
          "name": "retriever",
          "type": "address"
        },
        {
          "indexed": false,
          "internalType": "uint256",
          "name": "timestamp",
          "type": "uint256"
        }
      ],
      "name": "ContactDataRetrieved",
      "type": "event"
    },
    {
      "anonymous": false,
      "inputs": [
        {
          "indexed": true,
          "internalType": "address",
          "name": "user",
          "type": "address"
        },
        {
          "indexed": false,
          "internalType": "uint256",
          "name": "timestamp",
          "type": "uint256"
        }
      ],
      "name": "ContactDataSubmitted",
      "type": "event"
    },
    {
      "anonymous": false,
      "inputs": [
        {
          "indexed": true,
          "internalType": "address",
          "name": "user",
          "type": "address"
        },
        {
          "indexed": false,
          "internalType": "uint8",
          "name": "phoneNumber",
          "type": "uint8"
        },
        {
          "indexed": false,
          "internalType": "uint8",
          "name": "emailHash",
          "type": "uint8"
        },
        {
          "indexed": false,
          "internalType": "uint8",
          "name": "emergencyContact",
          "type": "uint8"
        }
      ],
      "name": "ContactInfoDecrypted",
      "type": "event"
    },
    {
      "anonymous": false,
      "inputs": [
        {
          "indexed": true,
          "internalType": "address",
          "name": "user",
          "type": "address"
        }
      ],
      "name": "ContactInfoSubmitted",
      "type": "event"
    },
    {
      "anonymous": false,
      "inputs": [
        {
          "indexed": true,
          "internalType": "address",
          "name": "user",
          "type": "address"
        },
        {
          "indexed": false,
          "internalType": "uint8",
          "name": "fieldType",
          "type": "uint8"
        }
      ],
      "name": "ContactInfoUpdated",
      "type": "event"
    },
    {
      "anonymous": false,
      "inputs": [
        {
          "indexed": true,
          "internalType": "address",
          "name": "user",
          "type": "address"
        },
        {
          "indexed": false,
          "internalType": "bool",
          "name": "isValid",
          "type": "bool"
        },
        {
          "indexed": false,
          "internalType": "uint8",
          "name": "integrityScore",
          "type": "uint8"
        }
      ],
      "name": "DataIntegrityChecked",
      "type": "event"
    },
    {
      "anonymous": false,
      "inputs": [
        {
          "indexed": true,
          "internalType": "address",
          "name": "user",
          "type": "address"
        },
        {
          "indexed": false,
          "internalType": "string",
          "name": "name",
          "type": "string"
        },
        {
          "indexed": false,
          "internalType": "string",
          "name": "email",
          "type": "string"
        }
      ],
      "name": "DecryptionFinalized",
      "type": "event"
    },
    {
      "anonymous": false,
      "inputs": [
        {
          "indexed": true,
          "internalType": "address",
          "name": "previousOwner",
          "type": "address"
        },
        {
          "indexed": true,
          "internalType": "address",
          "name": "newOwner",
          "type": "address"
        },
        {
          "indexed": false,
          "internalType": "uint256",
          "name": "timestamp",
          "type": "uint256"
        }
      ],
      "name": "OwnershipTransferred",
      "type": "event"
    },
    {
      "inputs": [
        {
          "internalType": "address",
          "name": "admin",
          "type": "address"
        }
      ],
      "name": "addAdmin",
      "outputs": [],
      "stateMutability": "nonpayable",
      "type": "function"
    },
    {
      "inputs": [
        {
          "internalType": "address",
          "name": "",
          "type": "address"
        }
      ],
      "name": "admins",
      "outputs": [
        {
          "internalType": "bool",
          "name": "",
          "type": "bool"
        }
      ],
      "stateMutability": "view",
      "type": "function"
    },
    {
      "inputs": [
        {
          "internalType": "address",
          "name": "user",
          "type": "address"
        }
      ],
      "name": "checkDataIntegrity",
      "outputs": [
        {
          "internalType": "bool",
          "name": "isValid",
          "type": "bool"
        },
        {
          "internalType": "uint8",
          "name": "integrityScore",
          "type": "uint8"
        }
      ],
      "stateMutability": "nonpayable",
      "type": "function"
    },
    {
      "inputs": [
        {
          "internalType": "bool",
          "name": "pause",
          "type": "bool"
        }
      ],
      "name": "emergencyStop",
      "outputs": [],
      "stateMutability": "nonpayable",
      "type": "function"
    },
    {
      "inputs": [
        {
          "internalType": "address",
          "name": "user",
          "type": "address"
        },
        {
          "internalType": "uint8",
          "name": "phoneNumber",
          "type": "uint8"
        },
        {
          "internalType": "uint8",
          "name": "emailHash",
          "type": "uint8"
        },
        {
          "internalType": "uint8",
          "name": "emergencyContact",
          "type": "uint8"
        },
        {
          "internalType": "string",
          "name": "name",
          "type": "string"
        },
        {
          "internalType": "string",
          "name": "email",
          "type": "string"
        }
      ],
      "name": "finalizeDecryption",
      "outputs": [],
      "stateMutability": "nonpayable",
      "type": "function"
    },
    {
      "inputs": [
        {
          "internalType": "address",
          "name": "user",
          "type": "address"
        },
        {
          "internalType": "uint8",
          "name": "phoneNumber",
          "type": "uint8"
        },
        {
          "internalType": "uint8",
          "name": "emailHash",
          "type": "uint8"
        },
        {
          "internalType": "uint8",
          "name": "emergencyContact",
          "type": "uint8"
        },
        {
          "internalType": "string",
          "name": "name",
          "type": "string"
        },
        {
          "internalType": "string",
          "name": "email",
          "type": "string"
        }
      ],
      "name": "finalizePublicDecryption",
      "outputs": [],
      "stateMutability": "nonpayable",
      "type": "function"
    },
    {
      "inputs": [
        {
          "internalType": "address",
          "name": "user",
          "type": "address"
        },
        {
          "internalType": "uint8",
          "name": "phoneNumber",
          "type": "uint8"
        },
        {
          "internalType": "uint8",
          "name": "emailHash",
          "type": "uint8"
        },
        {
          "internalType": "uint8",
          "name": "emergencyContact",
          "type": "uint8"
        },
        {
          "internalType": "string",
          "name": "name",
          "type": "string"
        },
        {
          "internalType": "string",
          "name": "email",
          "type": "string"
        }
      ],
      "name": "finalizeResults",
      "outputs": [],
      "stateMutability": "nonpayable",
      "type": "function"
    },
    {
      "inputs": [
        {
          "internalType": "address",
          "name": "user",
          "type": "address"
        }
      ],
      "name": "getContactInfo",
      "outputs": [
        {
          "internalType": "bytes",
          "name": "phoneNumber",
          "type": "bytes"
        },
        {
          "internalType": "bytes",
          "name": "emailHash",
          "type": "bytes"
        },
        {
          "internalType": "bytes",
          "name": "emergencyContact",
          "type": "bytes"
        }
      ],
      "stateMutability": "view",
      "type": "function"
    },
    {
      "inputs": [
        {
          "internalType": "address",
          "name": "user",
          "type": "address"
        }
      ],
      "name": "getDecryptedContactInfo",
      "outputs": [
        {
          "internalType": "uint8",
          "name": "phoneNumber",
          "type": "uint8"
        },
        {
          "internalType": "uint8",
          "name": "emailHash",
          "type": "uint8"
        },
        {
          "internalType": "uint8",
          "name": "emergencyContact",
          "type": "uint8"
        },
        {
          "internalType": "string",
          "name": "name",
          "type": "string"
        },
        {
          "internalType": "string",
          "name": "email",
          "type": "string"
        },
        {
          "internalType": "bool",
          "name": "decrypted",
          "type": "bool"
        }
      ],
      "stateMutability": "view",
      "type": "function"
    },
    {
      "inputs": [
        {
          "internalType": "address",
          "name": "user",
          "type": "address"
        }
      ],
      "name": "getEncryptedHandles",
      "outputs": [
        {
          "internalType": "uint256",
          "name": "",
          "type": "uint256"
        },
        {
          "internalType": "uint256",
          "name": "",
          "type": "uint256"
        },
        {
          "internalType": "uint256",
          "name": "",
          "type": "uint256"
        }
      ],
      "stateMutability": "view",
      "type": "function"
    },
    {
      "inputs": [],
      "name": "getVersion",
      "outputs": [
        {
          "internalType": "string",
          "name": "",
          "type": "string"
        }
      ],
      "stateMutability": "pure",
      "type": "function"
    },
    {
      "inputs": [
        {
          "internalType": "address",
          "name": "user",
          "type": "address"
        }
      ],
      "name": "hasContactInfo",
      "outputs": [
        {
          "internalType": "bool",
          "name": "",
          "type": "bool"
        }
      ],
      "stateMutability": "view",
      "type": "function"
    },
    {
      "inputs": [
        {
          "internalType": "address",
          "name": "account",
          "type": "address"
        }
      ],
      "name": "isAdmin",
      "outputs": [
        {
          "internalType": "bool",
          "name": "",
          "type": "bool"
        }
      ],
      "stateMutability": "view",
      "type": "function"
    },
    {
      "inputs": [
        {
          "internalType": "address",
          "name": "user",
          "type": "address"
        }
      ],
      "name": "isContactInfoComplete",
      "outputs": [
        {
          "internalType": "bool",
          "name": "",
          "type": "bool"
        }
      ],
      "stateMutability": "view",
      "type": "function"
    },
    {
      "inputs": [],
      "name": "owner",
      "outputs": [
        {
          "internalType": "address",
          "name": "",
          "type": "address"
        }
      ],
      "stateMutability": "view",
      "type": "function"
    },
    {
      "inputs": [],
      "name": "protocolId",
      "outputs": [
        {
          "internalType": "uint256",
          "name": "",
          "type": "uint256"
        }
      ],
      "stateMutability": "pure",
      "type": "function"
    },
    {
      "inputs": [
        {
          "internalType": "address",
          "name": "admin",
          "type": "address"
        }
      ],
      "name": "removeAdmin",
      "outputs": [],
      "stateMutability": "nonpayable",
      "type": "function"
    },
    {
      "inputs": [
        {
          "internalType": "uint256",
          "name": "phoneHandle",
          "type": "uint256"
        },
        {
          "internalType": "bytes",
          "name": "phoneInputProof",
          "type": "bytes"
        },
        {
          "internalType": "uint256",
          "name": "emailHandle",
          "type": "uint256"
        },
        {
          "internalType": "bytes",
          "name": "emailInputProof",
          "type": "bytes"
        },
        {
          "internalType": "uint256",
          "name": "emergencyHandle",
          "type": "uint256"
        },
        {
          "internalType": "bytes",
          "name": "emergencyInputProof",
          "type": "bytes"
        }
      ],
      "name": "submitContactInfo",
      "outputs": [],
      "stateMutability": "nonpayable",
      "type": "function"
    },
    {
      "inputs": [
        {
          "internalType": "bytes",
          "name": "encryptedPhone",
          "type": "bytes"
        },
        {
          "internalType": "bytes",
          "name": "encryptedEmail",
          "type": "bytes"
        },
        {
          "internalType": "bytes",
          "name": "encryptedEmergency",
          "type": "bytes"
        }
      ],
      "name": "submitContactInfoSimple",
      "outputs": [],
      "stateMutability": "nonpayable",
      "type": "function"
    },
    {
      "inputs": [
        {
          "internalType": "uint8",
          "name": "fieldType",
          "type": "uint8"
        },
        {
          "internalType": "uint256",
          "name": "handle",
          "type": "uint256"
        },
        {
          "internalType": "bytes",
          "name": "inputProof",
          "type": "bytes"
        }
      ],
      "name": "updateContactField",
      "outputs": [],
      "stateMutability": "nonpayable",
      "type": "function"
    },
    {
      "inputs": [
        {
          "internalType": "uint8",
          "name": "fieldType",
          "type": "uint8"
        },
        {
          "internalType": "bytes",
          "name": "encryptedValue",
          "type": "bytes"
        }
      ],
      "name": "updateContactFieldSimple",
      "outputs": [],
      "stateMutability": "nonpayable",
      "type": "function"
    },
    {
      "inputs": [
        {
          "internalType": "uint8",
          "name": "phone",
          "type": "uint8"
        },
        {
          "internalType": "string",
          "name": "email",
          "type": "string"
        },
        {
          "internalType": "uint8",
          "name": "emergency",
          "type": "uint8"
        }
      ],
      "name": "validateContactInfo",
      "outputs": [
        {
          "internalType": "bool",
          "name": "isValid",
          "type": "bool"
        },
        {
          "internalType": "uint8",
          "name": "errorCode",
          "type": "uint8"
        }
      ],
      "stateMutability": "pure",
      "type": "function"
    }
  ],
  "transactionHash": "0x3bce97e3f2e1430ff847577874d207ab55f848fa9315c31b3753528584d71445",
  "args": [],
  "numDeployments": 1,
  "solcInputHash": "e9661771892225dc15fe2ffd61334fb1",
  "bytecode": "0x608060405234801561000f575f5ffd5b5061018a6100ae604080516080810182525f80825260208201819052918101829052606081019190915250604080516080810182527350157cffd6bbfa2dece204a89ec419c23ef5755d815273cd3ab3bd6bcc0c0bf3e27912a92043e817b1cf69602082015273a02cda4ca3a71d7c46997716f4283aa851c2881291810191909152731364cbbf2cdf5032c47d8226a6f6fbd2afcdacac606082015290565b80517f9e7b61f58c47dc699ac88507c4f5bb9f121c03808c5676a8078fe583e464970080546001600160a01b03199081166001600160a01b039384161790915560208301517f9e7b61f58c47dc699ac88507c4f5bb9f121c03808c5676a8078fe583e46497018054831691841691909117905560408301517f9e7b61f58c47dc699ac88507c4f5bb9f121c03808c5676a8078fe583e46497028054831691841691909117905560608301517f9e7b61f58c47dc699ac88507c4f5bb9f121c03808c5676a8078fe583e46497038054909216921691909117905550565b5f80546001600160a01b0319163390811782558152600160208190526040909120805460ff191690911790556120fb806101c35f395ff3fe608060405234801561000f575f5ffd5b5060043610610179575f3560e01c806370480275116100d2578063ba67176e11610088578063da1f12ab11610063578063da1f12ab146103c0578063dec01e9e146103d0578063faf6df0b146103e3575f5ffd5b8063ba67176e14610387578063bc600a7f1461039a578063d9d91f90146103ad575f5ffd5b80638da5cb5b116100b85780638da5cb5b14610337578063b00f906214610361578063b86ed2d214610374575f5ffd5b8063704802751461030257806383703df314610315575f5ffd5b806338522b4d1161013257806361d759481161010d57806361d75948146102c957806363a7e786146102dc5780636c7f3b8e146102ef575f5ffd5b806338522b4d1461024d578063429b62e5146102795780635cd779761461029b575f5ffd5b80631785f53c116101625780631785f53c146101da57806324d7806c146101ed5780632a29730414610228575f5ffd5b80630ac62e021461017d5780630d8e6e2c14610192575b5f5ffd5b61019061018b36600461195c565b6103f6565b005b604080518082018252600581527f312e302e30000000000000000000000000000000000000000000000000000000602082015290516101d191906119a9565b60405180910390f35b6101906101e83660046119d6565b610443565b6102186101fb3660046119d6565b6001600160a01b03165f9081526001602052604090205460ff1690565b60405190151581526020016101d1565b61023b6102363660046119d6565b61054e565b6040516101d1969594939291906119ef565b61026061025b3660046119d6565b610727565b60408051921515835260ff9091166020830152016101d1565b6102186102873660046119d6565b60016020525f908152604090205460ff1681565b6102ae6102a93660046119d6565b610908565b604080519384526020840192909252908201526060016101d1565b6101906102d7366004611a89565b610b12565b6101906102ea366004611b38565b610d48565b6101906102fd366004611c2d565b610e53565b6101906103103660046119d6565b611029565b6103286103233660046119d6565b61111b565b6040516101d193929190611cd1565b5f54610349906001600160a01b031681565b6040516001600160a01b0390911681526020016101d1565b61019061036f366004611c2d565b6112fd565b610260610382366004611d13565b611370565b610190610395366004611d6d565b611442565b6102186103a83660046119d6565b611632565b6102186103bb3660046119d6565b6116ed565b60405161271181526020016101d1565b6101906103de366004611c2d565b611799565b6101906103f1366004611e29565b61186a565b5f546001600160a01b031633146104405760405162461bcd60e51b81526020600482015260096024820152682737ba1037bbb732b960b91b60448201526064015b60405180910390fd5b50565b5f546001600160a01b031633146104885760405162461bcd60e51b81526020600482015260096024820152682737ba1037bbb732b960b91b6044820152606401610437565b6001600160a01b0381165f9081526001602052604090205460ff166104ef5760405162461bcd60e51b815260206004820152601460248201527f41646472657373206973206e6f742061646d696e0000000000000000000000006044820152606401610437565b6001600160a01b0381165f8181526001602052604090819020805460ff19169055513391907fdee304e7e1affe12c7a37539c214abe72d3be7fbc78070c4b889e5e57de433a8906105439042815260200190565b60405180910390a350565b6001600160a01b0381165f90815260026020526040812060048101548291829160609182918491906301000000900460ff166105cc5760405162461bcd60e51b815260206004820152601e60248201527f436f6e7461637420696e666f206e6f74207965742064656372797074656400006044820152606401610437565b600481015460058201805460ff80841693610100810482169362010000820483169390926006880192630100000090041690839061060990611e78565b80601f016020809104026020016040519081016040528092919081815260200182805461063590611e78565b80156106805780601f1061065757610100808354040283529160200191610680565b820191905f5260205f20905b81548152906001019060200180831161066357829003601f168201915b5050505050925081805461069390611e78565b80601f01602080910402602001604051908101604052809291908181526020018280546106bf90611e78565b801561070a5780601f106106e15761010080835404028352916020019161070a565b820191905f5260205f20905b8154815290600101906020018083116106ed57829003601f168201915b505050505091509650965096509650965096505091939550919395565b6001600160a01b0381165f90815260026020526040812060048101548291906301000000900460ff1661075f57505f93849350915050565b6004810154606490600a60ff909116108061078357506004820154606360ff909116115b1561079657610793601e82611eaa565b90505b6004820154600a6201000090910460ff1610806107c15750600482015460636201000090910460ff16115b156107d4576107d1601e82611eaa565b90505b5f805b8360060180546107e690611e78565b905081101561087157836006018181546107ff90611e78565b811061080d5761080d611ed5565b81546001161561082a57905f5260205f2090602091828204019190065b9054901a600160f81b027effffffffffffffffffffffffffffffffffffffffffffffffffffffffffffff1916600160fe1b036108695760019150610871565b6001016107d7565b508061088557610882602883611eaa565b91505b600283600501805461089690611e78565b905010156108ac576108a9601483611eaa565b91505b60408051603c60ff8516908110158083526020830191909152916001600160a01b038916917f70dd38fd86d258a53de33d0393c4d11c6f9e046e455cdd53b4bfd0dfb02c079c910160405180910390a296919550909350505050565b6001600160a01b0381165f9081526002602052604081208054829182918290829061093290611e78565b80601f016020809104026020016040519081016040528092919081815260200182805461095e90611e78565b80156109a95780601f10610980576101008083540402835291602001916109a9565b820191905f5260205f20905b81548152906001019060200180831161098c57829003601f168201915b50505050508060200190518101906109c19190611ee9565b90505f8260010180546109d390611e78565b80601f01602080910402602001604051908101604052809291908181526020018280546109ff90611e78565b8015610a4a5780601f10610a2157610100808354040283529160200191610a4a565b820191905f5260205f20905b815481529060010190602001808311610a2d57829003601f168201915b5050505050806020019051810190610a629190611ee9565b90505f836002018054610a7490611e78565b80601f0160208091040260200160405190810160405280929190818152602001828054610aa090611e78565b8015610aeb5780601f10610ac257610100808354040283529160200191610aeb565b820191905f5260205f20905b815481529060010190602001808311610ace57829003601f168201915b5050505050806020019051810190610b039190611ee9565b92989197509195509350505050565b60405180610140016040528087878080601f0160208091040260200160405190810160405280939291908181526020018383808284375f92019190915250505090825250604080516020601f8801819004810282018101909252868152918101919087908790819084018382808284375f92019190915250505090825250604080516020601f8601819004810282018101909252848152918101919085908590819084018382808284375f92019190915250505090825250604051602091820191610be4916001910190815260200190565b60408051601f198184030181529181529082525f602083810182905283830182905260608401829052608084018290528251808201845282815260a08501528251808201845282815260c0909401939093523381526002909252902081518190610c4e9082611f4c565b5060208201516001820190610c639082611f4c565b5060408201516002820190610c789082611f4c565b5060608201516003820190610c8d9082611f4c565b50608082015160048201805460a085015160c086015160e0870151151563010000000263ff0000001960ff92831662010000021663ffff00001993831661010090810261ffff1990961693909716929092179390931791909116171790558201516005820190610cfd9082611f4c565b506101208201516006820190610d139082611f4c565b50506040513391507fc98372b72be3d7cb5b76ed25857ee181f4b777086758bc1202c7559f34680218905f90a2505050505050565b60038460ff1610610d9b5760405162461bcd60e51b815260206004820152601260248201527f496e76616c6964206669656c64207479706500000000000000000000000000006044820152606401610437565b335f90815260026020908152604080832081518084018890528251808203909401845282019091529160ff87169003610ddf5781610dd98282611f4c565b50610e13565b8560ff16600103610df85760018201610dd98282611f4c565b8560ff16600203610e135760028201610e118282611f4c565b505b60405160ff8716815233907f5fe90185ba9c9524543bc6807371001f56f72618af6090c94b840fc539ec01879060200160405180910390a2505050505050565b6001600160a01b0386165f90815260026020526040902060048101546301000000900460ff1615610ec65760405162461bcd60e51b815260206004820152601160248201527f416c7265616479206465637279707465640000000000000000000000000000006044820152606401610437565b5f815f018054610ed590611e78565b905011610f245760405162461bcd60e51b815260206004820181905260248201527f4e6f20656e63727970746564206461746120666f756e6420666f7220757365726044820152606401610437565b60048101805460ff868116620100000262ff0000198983166101000261ffff19909416928b1692909217929092171617905560058101610f648482611f4c565b5060068101610f738382611f4c565b5060048101805463ff000000191663010000001790556040805160ff888116825287811660208301528616918101919091526001600160a01b038816907f576f0ea4ac0a863714fce96e438a3794e402dd78d838c61c43f6bfc7c70977c49060600160405180910390a2866001600160a01b03167f7860e6f42cf65a2a571bbd16bbb4770a730ce6c6985a197d11a0c14b506e50998484604051611018929190612007565b60405180910390a250505050505050565b5f546001600160a01b0316331461106e5760405162461bcd60e51b81526020600482015260096024820152682737ba1037bbb732b960b91b6044820152606401610437565b6001600160a01b0381166110c45760405162461bcd60e51b815260206004820152601560248201527f496e76616c69642061646d696e206164647265737300000000000000000000006044820152606401610437565b6001600160a01b0381165f81815260016020818152604092839020805460ff191690921790915590514281523392917fc879829b6ab559448e08c444fd0ef1f6e6ec47d851c79f50bc979d2f8f00e1809101610543565b60608060605f60025f866001600160a01b03166001600160a01b031681526020019081526020015f209050805f01816001018260020182805461115d90611e78565b80601f016020809104026020016040519081016040528092919081815260200182805461118990611e78565b80156111d45780601f106111ab576101008083540402835291602001916111d4565b820191905f5260205f20905b8154815290600101906020018083116111b757829003601f168201915b505050505092508180546111e790611e78565b80601f016020809104026020016040519081016040528092919081815260200182805461121390611e78565b801561125e5780601f106112355761010080835404028352916020019161125e565b820191905f5260205f20905b81548152906001019060200180831161124157829003601f168201915b5050505050915080805461127190611e78565b80601f016020809104026020016040519081016040528092919081815260200182805461129d90611e78565b80156112e85780601f106112bf576101008083540402835291602001916112e8565b820191905f5260205f20905b8154815290600101906020018083116112cb57829003601f168201915b50505050509050935093509350509193909250565b6001600160a01b0386165f90815260026020526040902060048101546301000000900460ff1615610f245760405162461bcd60e51b815260206004820152601160248201527f416c72656164792066696e616c697a65640000000000000000000000000000006044820152606401610437565b5f5f600a8560ff161080611387575060638560ff16115b1561139757505f9050600161143a565b5f805b85518110156113f7578581815181106113b5576113b5611ed5565b01602001517fff0000000000000000000000000000000000000000000000000000000000000016600160fe1b036113ef57600191506113f7565b60010161139a565b508061140a575f6002925092505061143a565b600a8460ff16108061141f575060638460ff16115b15611431575f6003925092505061143a565b60015f92509250505b935093915050565b5f8960405160200161145691815260200190565b60408051601f19818403018152828252602083018a905292505f910160408051601f198184030181528282526020830188905292505f910160408051601f198184030181528282526001602084015292505f910160408051601f19818403018152610140830182528683526020838101879052838301869052606084018290525f6080850181905260a0850181905260c0850181905260e08501819052835180830185528181526101008601528351808301855281815261012086015233815260029091529190912082519193509081906115319082611f4c565b50602082015160018201906115469082611f4c565b506040820151600282019061155b9082611f4c565b50606082015160038201906115709082611f4c565b50608082015160048201805460a085015160c086015160e0870151151563010000000263ff0000001960ff92831662010000021663ffff00001993831661010090810261ffff19909616939097169290921793909317919091161717905582015160058201906115e09082611f4c565b5061012082015160068201906115f69082611f4c565b50506040513391507fc98372b72be3d7cb5b76ed25857ee181f4b777086758bc1202c7559f34680218905f90a250505050505050505050505050565b6001600160a01b0381165f90815260026020526040812060048101546301000000900460ff161561169b57600481015460ff1615158061167d57506004810154610100900460ff1615155b806116945750600481015462010000900460ff1615155b9392505050565b5f815f0180546116aa90611e78565b905011806116c757505f8160010180546116c390611e78565b9050115b8061169457505f8160020180546116dd90611e78565b9050119392505050565b50919050565b6001600160a01b0381165f90815260026020526040812060048101546301000000900460ff161561175557600481015460ff161580159061173957506004810154610100900460ff1615155b801561169457506004015462010000900460ff16151592915050565b5f815f01805461176490611e78565b905011801561178257505f81600101805461177e90611e78565b9050115b801561169457505f8160020180546116dd90611e78565b6001600160a01b0386165f90815260026020526040902060048101546301000000900460ff161561180c5760405162461bcd60e51b815260206004820152601160248201527f416c7265616479206465637279707465640000000000000000000000000000006044820152606401610437565b5f815f01805461181b90611e78565b905011610f245760405162461bcd60e51b815260206004820152601c60248201527f4e6f20656e63727970746564206461746120746f2064656372797074000000006044820152606401610437565b60038360ff16106118bd5760405162461bcd60e51b815260206004820152601260248201527f496e76616c6964206669656c64207479706500000000000000000000000000006044820152606401610437565b335f9081526002602052604081209060ff851690036118e857806118e2838583612034565b5061191e565b8360ff1660010361190257600181016118e2838583612034565b8360ff1660020361191e576002810161191c838583612034565b505b60405160ff8516815233907f5fe90185ba9c9524543bc6807371001f56f72618af6090c94b840fc539ec01879060200160405180910390a250505050565b5f6020828403121561196c575f5ffd5b81358015158114611694575f5ffd5b5f81518084528060208401602086015e5f602082860101526020601f19601f83011685010191505092915050565b602081525f611694602083018461197b565b80356001600160a01b03811681146119d1575f5ffd5b919050565b5f602082840312156119e6575f5ffd5b611694826119bb565b60ff8716815260ff8616602082015260ff8516604082015260c060608201525f611a1c60c083018661197b565b8281036080840152611a2e818661197b565b91505082151560a0830152979650505050505050565b5f5f83601f840112611a54575f5ffd5b50813567ffffffffffffffff811115611a6b575f5ffd5b602083019150836020828501011115611a82575f5ffd5b9250929050565b5f5f5f5f5f5f60608789031215611a9e575f5ffd5b863567ffffffffffffffff811115611ab4575f5ffd5b611ac089828a01611a44565b909750955050602087013567ffffffffffffffff811115611adf575f5ffd5b611aeb89828a01611a44565b909550935050604087013567ffffffffffffffff811115611b0a575f5ffd5b611b1689828a01611a44565b979a9699509497509295939492505050565b803560ff811681146119d1575f5ffd5b5f5f5f5f60608587031215611b4b575f5ffd5b611b5485611b28565b935060208501359250604085013567ffffffffffffffff811115611b76575f5ffd5b611b8287828801611a44565b95989497509550505050565b634e487b7160e01b5f52604160045260245ffd5b5f82601f830112611bb1575f5ffd5b813567ffffffffffffffff811115611bcb57611bcb611b8e565b604051601f8201601f19908116603f0116810167ffffffffffffffff81118282101715611bfa57611bfa611b8e565b604052818152838201602001851015611c11575f5ffd5b816020850160208301375f918101602001919091529392505050565b5f5f5f5f5f5f60c08789031215611c42575f5ffd5b611c4b876119bb565b9550611c5960208801611b28565b9450611c6760408801611b28565b9350611c7560608801611b28565b9250608087013567ffffffffffffffff811115611c90575f5ffd5b611c9c89828a01611ba2565b92505060a087013567ffffffffffffffff811115611cb8575f5ffd5b611cc489828a01611ba2565b9150509295509295509295565b606081525f611ce3606083018661197b565b8281036020840152611cf5818661197b565b90508281036040840152611d09818561197b565b9695505050505050565b5f5f5f60608486031215611d25575f5ffd5b611d2e84611b28565b9250602084013567ffffffffffffffff811115611d49575f5ffd5b611d5586828701611ba2565b925050611d6460408501611b28565b90509250925092565b5f5f5f5f5f5f5f5f5f60c08a8c031215611d85575f5ffd5b8935985060208a013567ffffffffffffffff811115611da2575f5ffd5b611dae8c828d01611a44565b90995097505060408a0135955060608a013567ffffffffffffffff811115611dd4575f5ffd5b611de08c828d01611a44565b90965094505060808a0135925060a08a013567ffffffffffffffff811115611e06575f5ffd5b611e128c828d01611a44565b915080935050809150509295985092959850929598565b5f5f5f60408486031215611e3b575f5ffd5b611e4484611b28565b9250602084013567ffffffffffffffff811115611e5f575f5ffd5b611e6b86828701611a44565b9497909650939450505050565b600181811c90821680611e8c57607f821691505b6020821081036116e757634e487b7160e01b5f52602260045260245ffd5b60ff8281168282160390811115611ecf57634e487b7160e01b5f52601160045260245ffd5b92915050565b634e487b7160e01b5f52603260045260245ffd5b5f60208284031215611ef9575f5ffd5b5051919050565b601f821115611f4757805f5260205f20601f840160051c81016020851015611f255750805b601f840160051c820191505b81811015611f44575f8155600101611f31565b50505b505050565b815167ffffffffffffffff811115611f6657611f66611b8e565b611f7a81611f748454611e78565b84611f00565b6020601f821160018114611fac575f8315611f955750848201515b5f19600385901b1c1916600184901b178455611f44565b5f84815260208120601f198516915b82811015611fdb5787850151825560209485019460019092019101611fbb565b5084821015611ff857868401515f19600387901b60f8161c191681555b50505050600190811b01905550565b604081525f612019604083018561197b565b828103602084015261202b818561197b565b95945050505050565b67ffffffffffffffff83111561204c5761204c611b8e565b6120608361205a8354611e78565b83611f00565b5f601f841160018114612091575f851561207a5750838201355b5f19600387901b1c1916600186901b178355611f44565b5f83815260208120601f198716915b828110156120c057868501358255602094850194600190920191016120a0565b50868210156120dc575f1960f88860031b161c19848701351681555b505060018560011b018355505050505056fea164736f6c634300081b000a",
  "devdoc": {
    "author": "secure-data project",
    "kind": "dev",
    "methods": {
      "addAdmin(address)": {
        "params": {
          "admin": "Address to grant admin privileges"
        }
      },
      "checkDataIntegrity(address)": {
        "params": {
          "user": "The user address"
        },
        "returns": {
          "integrityScore": "Integrity score (0-100, higher is better)",
          "isValid": "True if decrypted data passes integrity checks"
        }
      },
      "emergencyStop(bool)": {
        "params": {
          "pause": "True to pause, false to unpause"
        }
      },
      "finalizeDecryption(address,uint8,uint8,uint8,string,string)": {
        "params": {
          "email": "The decrypted email (string support)",
          "emailHash": "The decrypted email hash",
          "emergencyContact": "The decrypted emergency contact",
          "name": "The decrypted name (string support)",
          "phoneNumber": "The decrypted phone number",
          "user": "The address of the user whose data was decrypted"
        }
      },
      "finalizePublicDecryption(address,uint8,uint8,uint8,string,string)": {
        "params": {
          "email": "The decrypted email",
          "emailHash": "The decrypted email hash",
          "emergencyContact": "The decrypted emergency contact",
          "name": "The decrypted name",
          "phoneNumber": "The decrypted phone number",
          "user": "The address of the user whose data was decrypted"
        }
      },
      "finalizeResults(address,uint8,uint8,uint8,string,string)": {
        "params": {
          "email": "The decrypted email",
          "emailHash": "The decrypted email hash",
          "emergencyContact": "The decrypted emergency contact",
          "name": "The decrypted name",
          "phoneNumber": "The decrypted phone number",
          "user": "The user address"
        }
      },
      "getContactInfo(address)": {
        "params": {
          "user": "The user address"
        },
        "returns": {
          "emailHash": "Encrypted email hash (bytes)",
          "emergencyContact": "Encrypted emergency contact (bytes)",
          "phoneNumber": "Encrypted phone number (bytes)"
        }
      },
      "getDecryptedContactInfo(address)": {
        "params": {
          "user": "The user address"
        },
        "returns": {
          "decrypted": "Whether the data has been decrypted",
          "email": "Decrypted email",
          "emailHash": "Decrypted email hash",
          "emergencyContact": "Decrypted emergency contact",
          "name": "Decrypted name",
          "phoneNumber": "Decrypted phone number"
        }
      },
      "getEncryptedHandles(address)": {
        "params": {
          "user": "The user address"
        },
        "returns": {
          "_0": "phoneHandle Phone number FHE handle",
          "_1": "emailHandle Email hash FHE handle",
          "_2": "emergencyHandle Emergency contact FHE handle"
        }
      },
      "getVersion()": {
        "details": "Returns semantic version string for API compatibility",
        "returns": {
          "_0": "version Contract version in semantic versioning format (MAJOR.MINOR.PATCH)"
        }
      },
      "hasContactInfo(address)": {
        "params": {
          "user": "The user address"
        },
        "returns": {
          "_0": "True if user has submitted contact info"
        }
      },
      "isAdmin(address)": {
        "params": {
          "account": "Address to check"
        },
        "returns": {
          "_0": "bool True if address is admin"
        }
      },
      "isContactInfoComplete(address)": {
        "params": {
          "user": "The user address"
        },
        "returns": {
          "_0": "True if all contact fields are provided"
        }
      },
      "removeAdmin(address)": {
        "params": {
          "admin": "Address to revoke admin privileges"
        }
      },
      "submitContactInfo(uint256,bytes,uint256,bytes,uint256,bytes)": {
        "custom:security": "Only callable by data owner, encryption verified by FHEVM",
        "details": "Stores fully homomorphically encrypted contact data on blockchainOnly the user can decrypt their own data using private key",
        "params": {
          "emailHandle": "FHE encrypted email hash handle (uint256 ciphertext)",
          "emailInputProof": "ZK proof verifying email encryption integrity",
          "emergencyHandle": "FHE encrypted emergency contact handle (uint256 ciphertext)",
          "emergencyInputProof": "ZK proof verifying emergency contact encryption integrity",
          "phoneHandle": "FHE encrypted phone number handle (uint256 ciphertext)",
          "phoneInputProof": "ZK proof verifying phone number encryption integrity"
        }
      },
      "submitContactInfoSimple(bytes,bytes,bytes)": {
        "params": {
          "encryptedEmail": "Encrypted email as bytes",
          "encryptedEmergency": "Encrypted emergency contact as bytes",
          "encryptedPhone": "Encrypted phone as bytes"
        }
      },
      "updateContactField(uint8,uint256,bytes)": {
        "params": {
          "fieldType": "0=phone, 1=email, 2=emergency",
          "handle": "FHE encrypted handle",
          "inputProof": "Zama input proof"
        }
      },
      "updateContactFieldSimple(uint8,bytes)": {
        "params": {
          "encryptedValue": "Encrypted value as bytes",
          "fieldType": "0=phone, 1=email, 2=emergency"
        }
      },
      "validateContactInfo(uint8,string,uint8)": {
        "params": {
          "email": "Email to validate",
          "emergency": "Emergency contact to validate",
          "phone": "Phone number to validate"
        },
        "returns": {
          "errorCode": "0=valid, 1=invalid phone, 2=invalid email, 3=invalid emergency",
          "isValid": "True if all validations pass"
        }
      }
    },
    "title": "SecureData Contract for Encrypted Personal Contact Information",
    "version": 1
  },
  "userdoc": {
    "kind": "user",
    "methods": {
      "addAdmin(address)": {
        "notice": "Add an admin (only owner can call)"
      },
      "checkDataIntegrity(address)": {
        "notice": "Check data integrity after decryption"
      },
      "emergencyStop(bool)": {
        "notice": "Emergency stop functionality for contract owner"
      },
      "finalizeDecryption(address,uint8,uint8,uint8,string,string)": {
        "notice": "Mark contact information as decrypted (called after frontend decryption)"
      },
      "finalizePublicDecryption(address,uint8,uint8,uint8,string,string)": {
        "notice": "Public decryption - anyone can finalize decryption results"
      },
      "finalizeResults(address,uint8,uint8,uint8,string,string)": {
        "notice": "Finalize decryption results (called by anyone after off-chain decryption)"
      },
      "getContactInfo(address)": {
        "notice": "Get encrypted contact information for a user"
      },
      "getDecryptedContactInfo(address)": {
        "notice": "Get decrypted contact information (only available after decryption)"
      },
      "getEncryptedHandles(address)": {
        "notice": "Get encrypted handles for decryption (returns uint256)"
      },
      "getVersion()": {
        "notice": "Get contract version for compatibility checks"
      },
      "hasContactInfo(address)": {
        "notice": "Check if user has submitted any contact information"
      },
      "isAdmin(address)": {
        "notice": "Check if address is admin"
      },
      "isContactInfoComplete(address)": {
        "notice": "Check if user's contact information is complete (all fields filled)"
      },
      "removeAdmin(address)": {
        "notice": "Remove an admin (only owner can call)"
      },
      "submitContactInfo(uint256,bytes,uint256,bytes,uint256,bytes)": {
        "notice": "Submit encrypted contact information using FHE"
      },
      "submitContactInfoSimple(bytes,bytes,bytes)": {
        "notice": "Submit contact information with simple encryption (fallback mode)"
      },
      "updateContactField(uint8,uint256,bytes)": {
        "notice": "Update specific encrypted contact information (FHE mode)"
      },
      "updateContactFieldSimple(uint8,bytes)": {
        "notice": "Update contact field with simple encryption (fallback mode)"
      },
      "validateContactInfo(uint8,string,uint8)": {
        "notice": "Validate contact information format"
      }
    },
    "notice": "Stores encrypted personal contact information using FHEVM for privacy preservation",
    "version": 1
  },
  "storageLayout": {
    "storage": [
      {
        "astId": 39039,
        "contract": "contracts/SecureData.sol:SecureData",
        "label": "owner",
        "offset": 0,
        "slot": "0",
        "type": "t_address"
      },
      {
        "astId": 39043,
        "contract": "contracts/SecureData.sol:SecureData",
        "label": "admins",
        "offset": 0,
        "slot": "1",
        "type": "t_mapping(t_address,t_bool)"
      },
      {
        "astId": 39452,
        "contract": "contracts/SecureData.sol:SecureData",
        "label": "_contactInfos",
        "offset": 0,
        "slot": "2",
        "type": "t_mapping(t_address,t_struct(ContactInfo)39447_storage)"
      }
    ],
    "types": {
      "t_address": {
        "encoding": "inplace",
        "label": "address",
        "numberOfBytes": "20"
      },
      "t_bool": {
        "encoding": "inplace",
        "label": "bool",
        "numberOfBytes": "1"
      },
      "t_bytes_storage": {
        "encoding": "bytes",
        "label": "bytes",
        "numberOfBytes": "32"
      },
      "t_mapping(t_address,t_bool)": {
        "encoding": "mapping",
        "key": "t_address",
        "label": "mapping(address => bool)",
        "numberOfBytes": "32",
        "value": "t_bool"
      },
      "t_mapping(t_address,t_struct(ContactInfo)39447_storage)": {
        "encoding": "mapping",
        "key": "t_address",
        "label": "mapping(address => struct SecureData.ContactInfo)",
        "numberOfBytes": "32",
        "value": "t_struct(ContactInfo)39447_storage"
      },
      "t_string_storage": {
        "encoding": "bytes",
        "label": "string",
        "numberOfBytes": "32"
      },
      "t_struct(ContactInfo)39447_storage": {
        "encoding": "inplace",
        "label": "struct SecureData.ContactInfo",
        "members": [
          {
            "astId": 39428,
            "contract": "contracts/SecureData.sol:SecureData",
            "label": "encryptedPhoneNumber",
            "offset": 0,
            "slot": "0",
            "type": "t_bytes_storage"
          },
          {
            "astId": 39430,
            "contract": "contracts/SecureData.sol:SecureData",
            "label": "encryptedEmailHash",
            "offset": 0,
            "slot": "1",
            "type": "t_bytes_storage"
          },
          {
            "astId": 39432,
            "contract": "contracts/SecureData.sol:SecureData",
            "label": "encryptedEmergencyContact",
            "offset": 0,
            "slot": "2",
            "type": "t_bytes_storage"
          },
          {
            "astId": 39434,
            "contract": "contracts/SecureData.sol:SecureData",
            "label": "encryptedIsComplete",
            "offset": 0,
            "slot": "3",
            "type": "t_bytes_storage"
          },
          {
            "astId": 39436,
            "contract": "contracts/SecureData.sol:SecureData",
            "label": "finalPhoneNumber",
            "offset": 0,
            "slot": "4",
            "type": "t_uint8"
          },
          {
            "astId": 39438,
            "contract": "contracts/SecureData.sol:SecureData",
            "label": "finalEmailHash",
            "offset": 1,
            "slot": "4",
            "type": "t_uint8"
          },
          {
            "astId": 39440,
            "contract": "contracts/SecureData.sol:SecureData",
            "label": "finalEmergencyContact",
            "offset": 2,
            "slot": "4",
            "type": "t_uint8"
          },
          {
            "astId": 39442,
            "contract": "contracts/SecureData.sol:SecureData",
            "label": "decrypted",
            "offset": 3,
            "slot": "4",
            "type": "t_bool"
          },
          {
            "astId": 39444,
            "contract": "contracts/SecureData.sol:SecureData",
            "label": "finalName",
            "offset": 0,
            "slot": "5",
            "type": "t_string_storage"
          },
          {
            "astId": 39446,
            "contract": "contracts/SecureData.sol:SecureData",
            "label": "finalEmail",
            "offset": 0,
            "slot": "6",
            "type": "t_string_storage"
          }
        ],
        "numberOfBytes": "224"
      },
      "t_uint8": {
        "encoding": "inplace",
        "label": "uint8",
        "numberOfBytes": "1"
      }
    }
  }
}