{
  "address": "0xc3a0626B173A3635f55A67E788754a69fdb554c2",
  "abi": [
    {
      "inputs": [],
      "stateMutability": "nonpayable",
      "type": "constructor"
    },
    {
      "anonymous": false,
      "inputs": [
        {
          "indexed": true,
          "internalType": "address",
          "name": "user",
          "type": "address"
        },
        {
          "indexed": false,
          "internalType": "uint8",
          "name": "phoneNumber",
          "type": "uint8"
        },
        {
          "indexed": false,
          "internalType": "uint8",
          "name": "emailHash",
          "type": "uint8"
        },
        {
          "indexed": false,
          "internalType": "uint8",
          "name": "emergencyContact",
          "type": "uint8"
        }
      ],
      "name": "ContactInfoDecrypted",
      "type": "event"
    },
    {
      "anonymous": false,
      "inputs": [
        {
          "indexed": true,
          "internalType": "address",
          "name": "user",
          "type": "address"
        }
      ],
      "name": "ContactInfoSubmitted",
      "type": "event"
    },
    {
      "anonymous": false,
      "inputs": [
        {
          "indexed": true,
          "internalType": "address",
          "name": "user",
          "type": "address"
        }
      ],
      "name": "ContactInfoUpdated",
      "type": "event"
    },
    {
      "inputs": [
        {
          "internalType": "address",
          "name": "user",
          "type": "address"
        }
      ],
      "name": "checkDataIntegrity",
      "outputs": [
        {
          "internalType": "bool",
          "name": "isValid",
          "type": "bool"
        },
        {
          "internalType": "uint8",
          "name": "integrityScore",
          "type": "uint8"
        }
      ],
      "stateMutability": "view",
      "type": "function"
    },
    {
      "inputs": [
        {
          "internalType": "address",
          "name": "user",
          "type": "address"
        },
        {
          "internalType": "uint8",
          "name": "phoneNumber",
          "type": "uint8"
        },
        {
          "internalType": "uint8",
          "name": "emailHash",
          "type": "uint8"
        },
        {
          "internalType": "uint8",
          "name": "emergencyContact",
          "type": "uint8"
        },
        {
          "internalType": "string",
          "name": "name",
          "type": "string"
        },
        {
          "internalType": "string",
          "name": "email",
          "type": "string"
        }
      ],
      "name": "finalizeDecryption",
      "outputs": [],
      "stateMutability": "nonpayable",
      "type": "function"
    },
    {
      "inputs": [
        {
          "internalType": "address",
          "name": "user",
          "type": "address"
        },
        {
          "internalType": "uint8",
          "name": "phoneNumber",
          "type": "uint8"
        },
        {
          "internalType": "uint8",
          "name": "emailHash",
          "type": "uint8"
        },
        {
          "internalType": "uint8",
          "name": "emergencyContact",
          "type": "uint8"
        },
        {
          "internalType": "string",
          "name": "name",
          "type": "string"
        },
        {
          "internalType": "string",
          "name": "email",
          "type": "string"
        }
      ],
      "name": "finalizePublicDecryption",
      "outputs": [],
      "stateMutability": "nonpayable",
      "type": "function"
    },
    {
      "inputs": [
        {
          "internalType": "address",
          "name": "user",
          "type": "address"
        },
        {
          "internalType": "uint8",
          "name": "phoneNumber",
          "type": "uint8"
        },
        {
          "internalType": "uint8",
          "name": "emailHash",
          "type": "uint8"
        },
        {
          "internalType": "uint8",
          "name": "emergencyContact",
          "type": "uint8"
        },
        {
          "internalType": "string",
          "name": "name",
          "type": "string"
        },
        {
          "internalType": "string",
          "name": "email",
          "type": "string"
        }
      ],
      "name": "finalizeResults",
      "outputs": [],
      "stateMutability": "nonpayable",
      "type": "function"
    },
    {
      "inputs": [
        {
          "internalType": "address",
          "name": "user",
          "type": "address"
        }
      ],
      "name": "getContactInfo",
      "outputs": [
        {
          "internalType": "bytes",
          "name": "phoneNumber",
          "type": "bytes"
        },
        {
          "internalType": "bytes",
          "name": "emailHash",
          "type": "bytes"
        },
        {
          "internalType": "bytes",
          "name": "emergencyContact",
          "type": "bytes"
        }
      ],
      "stateMutability": "view",
      "type": "function"
    },
    {
      "inputs": [
        {
          "internalType": "address",
          "name": "user",
          "type": "address"
        }
      ],
      "name": "getDecryptedContactInfo",
      "outputs": [
        {
          "internalType": "uint8",
          "name": "phoneNumber",
          "type": "uint8"
        },
        {
          "internalType": "uint8",
          "name": "emailHash",
          "type": "uint8"
        },
        {
          "internalType": "uint8",
          "name": "emergencyContact",
          "type": "uint8"
        },
        {
          "internalType": "string",
          "name": "name",
          "type": "string"
        },
        {
          "internalType": "string",
          "name": "email",
          "type": "string"
        },
        {
          "internalType": "bool",
          "name": "decrypted",
          "type": "bool"
        }
      ],
      "stateMutability": "view",
      "type": "function"
    },
    {
      "inputs": [
        {
          "internalType": "address",
          "name": "user",
          "type": "address"
        }
      ],
      "name": "getEncryptedHandles",
      "outputs": [
        {
          "internalType": "uint256",
          "name": "",
          "type": "uint256"
        },
        {
          "internalType": "uint256",
          "name": "",
          "type": "uint256"
        },
        {
          "internalType": "uint256",
          "name": "",
          "type": "uint256"
        }
      ],
      "stateMutability": "view",
      "type": "function"
    },
    {
      "inputs": [
        {
          "internalType": "address",
          "name": "user",
          "type": "address"
        }
      ],
      "name": "hasContactInfo",
      "outputs": [
        {
          "internalType": "bool",
          "name": "",
          "type": "bool"
        }
      ],
      "stateMutability": "view",
      "type": "function"
    },
    {
      "inputs": [
        {
          "internalType": "address",
          "name": "user",
          "type": "address"
        }
      ],
      "name": "isContactInfoComplete",
      "outputs": [
        {
          "internalType": "bool",
          "name": "",
          "type": "bool"
        }
      ],
      "stateMutability": "view",
      "type": "function"
    },
    {
      "inputs": [],
      "name": "owner",
      "outputs": [
        {
          "internalType": "address",
          "name": "",
          "type": "address"
        }
      ],
      "stateMutability": "view",
      "type": "function"
    },
    {
      "inputs": [],
      "name": "protocolId",
      "outputs": [
        {
          "internalType": "uint256",
          "name": "",
          "type": "uint256"
        }
      ],
      "stateMutability": "pure",
      "type": "function"
    },
    {
      "inputs": [
        {
          "internalType": "uint256",
          "name": "phoneHandle",
          "type": "uint256"
        },
        {
          "internalType": "bytes",
          "name": "phoneInputProof",
          "type": "bytes"
        },
        {
          "internalType": "uint256",
          "name": "emailHandle",
          "type": "uint256"
        },
        {
          "internalType": "bytes",
          "name": "emailInputProof",
          "type": "bytes"
        },
        {
          "internalType": "uint256",
          "name": "emergencyHandle",
          "type": "uint256"
        },
        {
          "internalType": "bytes",
          "name": "emergencyInputProof",
          "type": "bytes"
        }
      ],
      "name": "submitContactInfo",
      "outputs": [],
      "stateMutability": "nonpayable",
      "type": "function"
    },
    {
      "inputs": [
        {
          "internalType": "bytes",
          "name": "encryptedPhone",
          "type": "bytes"
        },
        {
          "internalType": "bytes",
          "name": "encryptedEmail",
          "type": "bytes"
        },
        {
          "internalType": "bytes",
          "name": "encryptedEmergency",
          "type": "bytes"
        }
      ],
      "name": "submitContactInfoSimple",
      "outputs": [],
      "stateMutability": "nonpayable",
      "type": "function"
    },
    {
      "inputs": [
        {
          "internalType": "uint8",
          "name": "fieldType",
          "type": "uint8"
        },
        {
          "internalType": "uint256",
          "name": "handle",
          "type": "uint256"
        },
        {
          "internalType": "bytes",
          "name": "inputProof",
          "type": "bytes"
        }
      ],
      "name": "updateContactField",
      "outputs": [],
      "stateMutability": "nonpayable",
      "type": "function"
    },
    {
      "inputs": [
        {
          "internalType": "uint8",
          "name": "fieldType",
          "type": "uint8"
        },
        {
          "internalType": "bytes",
          "name": "encryptedValue",
          "type": "bytes"
        }
      ],
      "name": "updateContactFieldSimple",
      "outputs": [],
      "stateMutability": "nonpayable",
      "type": "function"
    },
    {
      "inputs": [
        {
          "internalType": "uint8",
          "name": "phone",
          "type": "uint8"
        },
        {
          "internalType": "string",
          "name": "email",
          "type": "string"
        },
        {
          "internalType": "uint8",
          "name": "emergency",
          "type": "uint8"
        }
      ],
      "name": "validateContactInfo",
      "outputs": [
        {
          "internalType": "bool",
          "name": "isValid",
          "type": "bool"
        },
        {
          "internalType": "uint8",
          "name": "errorCode",
          "type": "uint8"
        }
      ],
      "stateMutability": "pure",
      "type": "function"
    }
  ],
  "transactionHash": "0x01f6832ca21b4f4348629138efc4a935a28a5ffc45dd07b283150c68a22befbb",
  "args": [],
  "numDeployments": 1,
  "solcInputHash": "55ec886e9cbcfb949e72d4a08c717b81",
  "bytecode": "0x608060405234801561000f575f5ffd5b5061018a6100ae604080516080810182525f808252602082018190529181018290526060810191909152506040805160808101825273687820221192c5b662b25367f70076a37bc79b6c815273848b0066793bcc60346da1f49049357399b8d595602082015273a02cda4ca3a71d7c46997716f4283aa851c2881291810191909152731364cbbf2cdf5032c47d8226a6f6fbd2afcdacac606082015290565b80517f9e7b61f58c47dc699ac88507c4f5bb9f121c03808c5676a8078fe583e464970080546001600160a01b03199081166001600160a01b039384161790915560208301517f9e7b61f58c47dc699ac88507c4f5bb9f121c03808c5676a8078fe583e46497018054831691841691909117905560408301517f9e7b61f58c47dc699ac88507c4f5bb9f121c03808c5676a8078fe583e46497028054831691841691909117905560608301517f9e7b61f58c47dc699ac88507c4f5bb9f121c03808c5676a8078fe583e46497038054909216921691909117905550565b5f80546001600160a01b03191633179055611d8d806101a85f395ff3fe608060405234801561000f575f5ffd5b50600436106100fb575f3560e01c8063b00f906211610093578063d9d91f9011610063578063d9d91f901461026a578063da1f12ab1461027d578063dec01e9e1461028d578063faf6df0b146102a0575f5ffd5b8063b00f90621461020e578063b86ed2d214610221578063ba67176e14610234578063bc600a7f14610247575f5ffd5b806363a7e786116100ce57806363a7e7861461019c5780636c7f3b8e146101af57806383703df3146101c25780638da5cb5b146101e4575f5ffd5b80632a297304146100ff57806338522b4d1461012d5780635cd779761461015957806361d7594814610187575b5f5ffd5b61011261010d366004611655565b6102b3565b6040516101249695949392919061169c565b60405180910390f35b61014061013b366004611655565b610491565b60408051921515835260ff909116602083015201610124565b61016c610167366004611655565b610629565b60408051938452602084019290925290820152606001610124565b61019a610195366004611736565b610833565b005b61019a6101aa3660046117e5565b610a69565b61019a6101bd3660046118da565b610b66565b6101d56101d0366004611655565b610d37565b6040516101249392919061197e565b5f546101f6906001600160a01b031681565b6040516001600160a01b039091168152602001610124565b61019a61021c3660046118da565b610f19565b61014061022f3660046119c0565b61104e565b61019a610242366004611a1a565b61112e565b61025a610255366004611655565b61131e565b6040519015158152602001610124565b61025a610278366004611655565b6113d9565b6040516127118152602001610124565b61019a61029b3660046118da565b611485565b61019a6102ae366004611ad6565b611556565b6001600160a01b0381165f90815260016020526040812060048101548291829160609182918491906301000000900460ff166103365760405162461bcd60e51b815260206004820152601e60248201527f436f6e7461637420696e666f206e6f742079657420646563727970746564000060448201526064015b60405180910390fd5b600481015460058201805460ff80841693610100810482169362010000820483169390926006880192630100000090041690839061037390611b25565b80601f016020809104026020016040519081016040528092919081815260200182805461039f90611b25565b80156103ea5780601f106103c1576101008083540402835291602001916103ea565b820191905f5260205f20905b8154815290600101906020018083116103cd57829003601f168201915b505050505092508180546103fd90611b25565b80601f016020809104026020016040519081016040528092919081815260200182805461042990611b25565b80156104745780601f1061044b57610100808354040283529160200191610474565b820191905f5260205f20905b81548152906001019060200180831161045757829003601f168201915b505050505091509650965096509650965096505091939550919395565b6001600160a01b0381165f90815260016020526040812060048101548291906301000000900460ff166104c957505f93849350915050565b6004810154606490600a60ff90911610806104ed57506004820154606360ff909116115b15610500576104fd601e82611b57565b90505b6004820154600a6201000090910460ff16108061052b5750600482015460636201000090910460ff16115b1561053e5761053b601e82611b57565b90505b5f805b83600601805461055090611b25565b90508110156105db578360060181815461056990611b25565b811061057757610577611b82565b81546001161561059457905f5260205f2090602091828204019190065b9054901a600160f81b027effffffffffffffffffffffffffffffffffffffffffffffffffffffffffffff1916600160fe1b036105d357600191506105db565b600101610541565b50806105ef576105ec602883611b57565b91505b600283600501805461060090611b25565b9050101561061657610613601483611b57565b91505b50603c60ff821610159590945092505050565b6001600160a01b0381165f9081526001602052604081208054829182918290829061065390611b25565b80601f016020809104026020016040519081016040528092919081815260200182805461067f90611b25565b80156106ca5780601f106106a1576101008083540402835291602001916106ca565b820191905f5260205f20905b8154815290600101906020018083116106ad57829003601f168201915b50505050508060200190518101906106e29190611b96565b90505f8260010180546106f490611b25565b80601f016020809104026020016040519081016040528092919081815260200182805461072090611b25565b801561076b5780601f106107425761010080835404028352916020019161076b565b820191905f5260205f20905b81548152906001019060200180831161074e57829003601f168201915b50505050508060200190518101906107839190611b96565b90505f83600201805461079590611b25565b80601f01602080910402602001604051908101604052809291908181526020018280546107c190611b25565b801561080c5780601f106107e35761010080835404028352916020019161080c565b820191905f5260205f20905b8154815290600101906020018083116107ef57829003601f168201915b50505050508060200190518101906108249190611b96565b92989197509195509350505050565b60405180610140016040528087878080601f0160208091040260200160405190810160405280939291908181526020018383808284375f92019190915250505090825250604080516020601f8801819004810282018101909252868152918101919087908790819084018382808284375f92019190915250505090825250604080516020601f8601819004810282018101909252848152918101919085908590819084018382808284375f92019190915250505090825250604051602091820191610905916001910190815260200190565b60408051601f198184030181529181529082525f602083810182905283830182905260608401829052608084018290528251808201845282815260a08501528251808201845282815260c090940193909352338152600190925290208151819061096f9082611bf9565b50602082015160018201906109849082611bf9565b50604082015160028201906109999082611bf9565b50606082015160038201906109ae9082611bf9565b50608082015160048201805460a085015160c086015160e0870151151563010000000263ff0000001960ff92831662010000021663ffff00001993831661010090810261ffff1990961693909716929092179390931791909116171790558201516005820190610a1e9082611bf9565b506101208201516006820190610a349082611bf9565b50506040513391507fc98372b72be3d7cb5b76ed25857ee181f4b777086758bc1202c7559f34680218905f90a2505050505050565b60038460ff1610610abc5760405162461bcd60e51b815260206004820152601260248201527f496e76616c6964206669656c6420747970650000000000000000000000000000604482015260640161032d565b335f90815260016020908152604080832081518084018890528251808203909401845282019091529160ff87169003610b005781610afa8282611bf9565b50610b34565b8560ff16600103610b195760018201610afa8282611bf9565b8560ff16600203610b345760028201610b328282611bf9565b505b60405133907f2863aab37ab51d365359bd8777e09b87246ccb235525804fa6537a7cc1ef7a14905f90a2505050505050565b6001600160a01b0386165f90815260016020526040902060048101546301000000900460ff1615610bd95760405162461bcd60e51b815260206004820152601160248201527f416c726561647920646563727970746564000000000000000000000000000000604482015260640161032d565b5f5f610be688858861104e565b9150915081610c7357604080517f496e76616c696420636f6e74616374206461746120666f726d61742c2065727260208201527f6f7220636f64653a2000000000000000000000000000000000000000000000009181019190915260ff8216604982015260690160408051601f198184030181529082905262461bcd60e51b825261032d91600401611cb4565b60048301805460ff888116620100000262ff0000198b83166101000261ffff19909416928d1692909217929092171617905560058301610cb38682611bf9565b5060068301610cc28582611bf9565b5060048301805463ff000000191663010000001790556040805160ff8a8116825289811660208301528816918101919091526001600160a01b038a16907f576f0ea4ac0a863714fce96e438a3794e402dd78d838c61c43f6bfc7c70977c49060600160405180910390a2505050505050505050565b60608060605f60015f866001600160a01b03166001600160a01b031681526020019081526020015f209050805f018160010182600201828054610d7990611b25565b80601f0160208091040260200160405190810160405280929190818152602001828054610da590611b25565b8015610df05780601f10610dc757610100808354040283529160200191610df0565b820191905f5260205f20905b815481529060010190602001808311610dd357829003601f168201915b50505050509250818054610e0390611b25565b80601f0160208091040260200160405190810160405280929190818152602001828054610e2f90611b25565b8015610e7a5780601f10610e5157610100808354040283529160200191610e7a565b820191905f5260205f20905b815481529060010190602001808311610e5d57829003601f168201915b50505050509150808054610e8d90611b25565b80601f0160208091040260200160405190810160405280929190818152602001828054610eb990611b25565b8015610f045780601f10610edb57610100808354040283529160200191610f04565b820191905f5260205f20905b815481529060010190602001808311610ee757829003601f168201915b50505050509050935093509350509193909250565b6001600160a01b0386165f90815260016020526040902060048101546301000000900460ff1615610f8c5760405162461bcd60e51b815260206004820152601160248201527f416c72656164792066696e616c697a6564000000000000000000000000000000604482015260640161032d565b60048101805460ff868116620100000262ff0000198983166101000261ffff19909416928b1692909217929092171617905560058101610fcc8482611bf9565b5060068101610fdb8382611bf9565b5060048101805463ff000000191663010000001790556040805160ff888116825287811660208301528616918101919091526001600160a01b038816907f576f0ea4ac0a863714fce96e438a3794e402dd78d838c61c43f6bfc7c70977c49060600160405180910390a250505050505050565b5f5f600a8560ff161080611065575060638560ff16115b1561107557505f90506001611126565b5f805b85518110156110d55785818151811061109357611093611b82565b01602001517fff0000000000000000000000000000000000000000000000000000000000000016600160fe1b036110cd57600191506110d5565b600101611078565b508015806110e4575060058551105b156110f6575f60029250925050611126565b600a8460ff16108061110b575060638460ff16115b1561111d575f60039250925050611126565b60015f92509250505b935093915050565b5f8960405160200161114291815260200190565b60408051601f19818403018152828252602083018a905292505f910160408051601f198184030181528282526020830188905292505f910160408051601f198184030181528282526001602084015292505f910160408051601f19818403018152610140830182528683526020838101879052838301869052606084018290525f6080850181905260a0850181905260c0850181905260e085018190528351808301855281815261010086015283518083018552818152610120860152338152600190915291909120825191935090819061121d9082611bf9565b50602082015160018201906112329082611bf9565b50604082015160028201906112479082611bf9565b506060820151600382019061125c9082611bf9565b50608082015160048201805460a085015160c086015160e0870151151563010000000263ff0000001960ff92831662010000021663ffff00001993831661010090810261ffff19909616939097169290921793909317919091161717905582015160058201906112cc9082611bf9565b5061012082015160068201906112e29082611bf9565b50506040513391507fc98372b72be3d7cb5b76ed25857ee181f4b777086758bc1202c7559f34680218905f90a250505050505050505050505050565b6001600160a01b0381165f90815260016020526040812060048101546301000000900460ff161561138757600481015460ff1615158061136957506004810154610100900460ff1615155b806113805750600481015462010000900460ff1615155b9392505050565b5f815f01805461139690611b25565b905011806113b357505f8160010180546113af90611b25565b9050115b8061138057505f8160020180546113c990611b25565b9050119392505050565b50919050565b6001600160a01b0381165f90815260016020526040812060048101546301000000900460ff161561144157600481015460ff161580159061142557506004810154610100900460ff1615155b801561138057506004015462010000900460ff16151592915050565b5f815f01805461145090611b25565b905011801561146e57505f81600101805461146a90611b25565b9050115b801561138057505f8160020180546113c990611b25565b6001600160a01b0386165f90815260016020526040902060048101546301000000900460ff16156114f85760405162461bcd60e51b815260206004820152601160248201527f416c726561647920646563727970746564000000000000000000000000000000604482015260640161032d565b5f815f01805461150790611b25565b905011610f8c5760405162461bcd60e51b815260206004820152601c60248201527f4e6f20656e63727970746564206461746120746f206465637279707400000000604482015260640161032d565b60038360ff16106115a95760405162461bcd60e51b815260206004820152601260248201527f496e76616c6964206669656c6420747970650000000000000000000000000000604482015260640161032d565b335f9081526001602052604081209060ff851690036115d457806115ce838583611cc6565b5061160a565b8360ff166001036115ee57600181016115ce838583611cc6565b8360ff1660020361160a5760028101611608838583611cc6565b505b60405133907f2863aab37ab51d365359bd8777e09b87246ccb235525804fa6537a7cc1ef7a14905f90a250505050565b80356001600160a01b0381168114611650575f5ffd5b919050565b5f60208284031215611665575f5ffd5b6113808261163a565b5f81518084528060208401602086015e5f602082860101526020601f19601f83011685010191505092915050565b60ff8716815260ff8616602082015260ff8516604082015260c060608201525f6116c960c083018661166e565b82810360808401526116db818661166e565b91505082151560a0830152979650505050505050565b5f5f83601f840112611701575f5ffd5b50813567ffffffffffffffff811115611718575f5ffd5b60208301915083602082850101111561172f575f5ffd5b9250929050565b5f5f5f5f5f5f6060878903121561174b575f5ffd5b863567ffffffffffffffff811115611761575f5ffd5b61176d89828a016116f1565b909750955050602087013567ffffffffffffffff81111561178c575f5ffd5b61179889828a016116f1565b909550935050604087013567ffffffffffffffff8111156117b7575f5ffd5b6117c389828a016116f1565b979a9699509497509295939492505050565b803560ff81168114611650575f5ffd5b5f5f5f5f606085870312156117f8575f5ffd5b611801856117d5565b935060208501359250604085013567ffffffffffffffff811115611823575f5ffd5b61182f878288016116f1565b95989497509550505050565b634e487b7160e01b5f52604160045260245ffd5b5f82601f83011261185e575f5ffd5b813567ffffffffffffffff8111156118785761187861183b565b604051601f8201601f19908116603f0116810167ffffffffffffffff811182821017156118a7576118a761183b565b6040528181528382016020018510156118be575f5ffd5b816020850160208301375f918101602001919091529392505050565b5f5f5f5f5f5f60c087890312156118ef575f5ffd5b6118f88761163a565b9550611906602088016117d5565b9450611914604088016117d5565b9350611922606088016117d5565b9250608087013567ffffffffffffffff81111561193d575f5ffd5b61194989828a0161184f565b92505060a087013567ffffffffffffffff811115611965575f5ffd5b61197189828a0161184f565b9150509295509295509295565b606081525f611990606083018661166e565b82810360208401526119a2818661166e565b905082810360408401526119b6818561166e565b9695505050505050565b5f5f5f606084860312156119d2575f5ffd5b6119db846117d5565b9250602084013567ffffffffffffffff8111156119f6575f5ffd5b611a028682870161184f565b925050611a11604085016117d5565b90509250925092565b5f5f5f5f5f5f5f5f5f60c08a8c031215611a32575f5ffd5b8935985060208a013567ffffffffffffffff811115611a4f575f5ffd5b611a5b8c828d016116f1565b90995097505060408a0135955060608a013567ffffffffffffffff811115611a81575f5ffd5b611a8d8c828d016116f1565b90965094505060808a0135925060a08a013567ffffffffffffffff811115611ab3575f5ffd5b611abf8c828d016116f1565b915080935050809150509295985092959850929598565b5f5f5f60408486031215611ae8575f5ffd5b611af1846117d5565b9250602084013567ffffffffffffffff811115611b0c575f5ffd5b611b18868287016116f1565b9497909650939450505050565b600181811c90821680611b3957607f821691505b6020821081036113d357634e487b7160e01b5f52602260045260245ffd5b60ff8281168282160390811115611b7c57634e487b7160e01b5f52601160045260245ffd5b92915050565b634e487b7160e01b5f52603260045260245ffd5b5f60208284031215611ba6575f5ffd5b5051919050565b601f821115611bf457805f5260205f20601f840160051c81016020851015611bd25750805b601f840160051c820191505b81811015611bf1575f8155600101611bde565b50505b505050565b815167ffffffffffffffff811115611c1357611c1361183b565b611c2781611c218454611b25565b84611bad565b6020601f821160018114611c59575f8315611c425750848201515b5f19600385901b1c1916600184901b178455611bf1565b5f84815260208120601f198516915b82811015611c885787850151825560209485019460019092019101611c68565b5084821015611ca557868401515f19600387901b60f8161c191681555b50505050600190811b01905550565b602081525f611380602083018461166e565b67ffffffffffffffff831115611cde57611cde61183b565b611cf283611cec8354611b25565b83611bad565b5f601f841160018114611d23575f8515611d0c5750838201355b5f19600387901b1c1916600186901b178355611bf1565b5f83815260208120601f198716915b82811015611d525786850135825560209485019460019092019101611d32565b5086821015611d6e575f1960f88860031b161c19848701351681555b505060018560011b018355505050505056fea164736f6c634300081b000a",
  "devdoc": {
    "author": "secure-data project",
    "kind": "dev",
    "methods": {
      "checkDataIntegrity(address)": {
        "params": {
          "user": "The user address"
        },
        "returns": {
          "integrityScore": "Integrity score (0-100, higher is better)",
          "isValid": "True if decrypted data passes integrity checks"
        }
      },
      "finalizeDecryption(address,uint8,uint8,uint8,string,string)": {
        "params": {
          "email": "The decrypted email (string support)",
          "emailHash": "The decrypted email hash",
          "emergencyContact": "The decrypted emergency contact",
          "name": "The decrypted name (string support)",
          "phoneNumber": "The decrypted phone number",
          "user": "The address of the user whose data was decrypted"
        }
      },
      "finalizePublicDecryption(address,uint8,uint8,uint8,string,string)": {
        "params": {
          "email": "The decrypted email",
          "emailHash": "The decrypted email hash",
          "emergencyContact": "The decrypted emergency contact",
          "name": "The decrypted name",
          "phoneNumber": "The decrypted phone number",
          "user": "The address of the user whose data was decrypted"
        }
      },
      "finalizeResults(address,uint8,uint8,uint8,string,string)": {
        "params": {
          "email": "The decrypted email",
          "emailHash": "The decrypted email hash",
          "emergencyContact": "The decrypted emergency contact",
          "name": "The decrypted name",
          "phoneNumber": "The decrypted phone number",
          "user": "The user address"
        }
      },
      "getContactInfo(address)": {
        "params": {
          "user": "The user address"
        },
        "returns": {
          "emailHash": "Encrypted email hash (bytes)",
          "emergencyContact": "Encrypted emergency contact (bytes)",
          "phoneNumber": "Encrypted phone number (bytes)"
        }
      },
      "getDecryptedContactInfo(address)": {
        "params": {
          "user": "The user address"
        },
        "returns": {
          "decrypted": "Whether the data has been decrypted",
          "email": "Decrypted email",
          "emailHash": "Decrypted email hash",
          "emergencyContact": "Decrypted emergency contact",
          "name": "Decrypted name",
          "phoneNumber": "Decrypted phone number"
        }
      },
      "getEncryptedHandles(address)": {
        "params": {
          "user": "The user address"
        },
        "returns": {
          "_0": "phoneHandle Phone number FHE handle",
          "_1": "emailHandle Email hash FHE handle",
          "_2": "emergencyHandle Emergency contact FHE handle"
        }
      },
      "hasContactInfo(address)": {
        "params": {
          "user": "The user address"
        },
        "returns": {
          "_0": "True if user has submitted contact info"
        }
      },
      "isContactInfoComplete(address)": {
        "params": {
          "user": "The user address"
        },
        "returns": {
          "_0": "True if all contact fields are provided"
        }
      },
      "submitContactInfo(uint256,bytes,uint256,bytes,uint256,bytes)": {
        "params": {
          "emailHandle": "FHE encrypted email hash handle",
          "emailInputProof": "Proof for email encryption",
          "emergencyHandle": "FHE encrypted emergency contact handle",
          "emergencyInputProof": "Proof for emergency contact encryption",
          "phoneHandle": "FHE encrypted phone number handle",
          "phoneInputProof": "Proof for phone encryption"
        }
      },
      "submitContactInfoSimple(bytes,bytes,bytes)": {
        "params": {
          "encryptedEmail": "Encrypted email as bytes",
          "encryptedEmergency": "Encrypted emergency contact as bytes",
          "encryptedPhone": "Encrypted phone as bytes"
        }
      },
      "updateContactField(uint8,uint256,bytes)": {
        "params": {
          "fieldType": "0=phone, 1=email, 2=emergency",
          "handle": "FHE encrypted handle",
          "inputProof": "Zama input proof"
        }
      },
      "updateContactFieldSimple(uint8,bytes)": {
        "params": {
          "encryptedValue": "Encrypted value as bytes",
          "fieldType": "0=phone, 1=email, 2=emergency"
        }
      },
      "validateContactInfo(uint8,string,uint8)": {
        "params": {
          "email": "Email to validate",
          "emergency": "Emergency contact to validate",
          "phone": "Phone number to validate"
        },
        "returns": {
          "errorCode": "Error code (0=valid, 1=invalid phone, 2=invalid email, 3=invalid emergency)",
          "isValid": "True if all contact info is valid"
        }
      }
    },
    "title": "SecureData Contract for Encrypted Personal Contact Information",
    "version": 1
  },
  "userdoc": {
    "kind": "user",
    "methods": {
      "checkDataIntegrity(address)": {
        "notice": "Check data integrity after decryption"
      },
      "finalizeDecryption(address,uint8,uint8,uint8,string,string)": {
        "notice": "Mark contact information as decrypted (called after frontend decryption)"
      },
      "finalizePublicDecryption(address,uint8,uint8,uint8,string,string)": {
        "notice": "Public decryption - anyone can finalize decryption results"
      },
      "finalizeResults(address,uint8,uint8,uint8,string,string)": {
        "notice": "Finalize decryption results (called by anyone after off-chain decryption)"
      },
      "getContactInfo(address)": {
        "notice": "Get encrypted contact information for a user"
      },
      "getDecryptedContactInfo(address)": {
        "notice": "Get decrypted contact information (only available after decryption)"
      },
      "getEncryptedHandles(address)": {
        "notice": "Get encrypted handles for decryption (returns uint256)"
      },
      "hasContactInfo(address)": {
        "notice": "Check if user has submitted any contact information"
      },
      "isContactInfoComplete(address)": {
        "notice": "Check if user's contact information is complete (all fields filled)"
      },
      "submitContactInfo(uint256,bytes,uint256,bytes,uint256,bytes)": {
        "notice": "Submit encrypted contact information (FHE mode)"
      },
      "submitContactInfoSimple(bytes,bytes,bytes)": {
        "notice": "Submit contact information with simple encryption (fallback mode)"
      },
      "updateContactField(uint8,uint256,bytes)": {
        "notice": "Update specific encrypted contact information (FHE mode)"
      },
      "updateContactFieldSimple(uint8,bytes)": {
        "notice": "Update contact field with simple encryption (fallback mode)"
      },
      "validateContactInfo(uint8,string,uint8)": {
        "notice": "Validate contact information format"
      }
    },
    "notice": "Stores encrypted personal contact information using FHEVM for privacy preservation",
    "version": 1
  },
  "storageLayout": {
    "storage": [
      {
        "astId": 39039,
        "contract": "contracts/SecureData.sol:SecureData",
        "label": "owner",
        "offset": 0,
        "slot": "0",
        "type": "t_address"
      },
      {
        "astId": 39312,
        "contract": "contracts/SecureData.sol:SecureData",
        "label": "_contactInfos",
        "offset": 0,
        "slot": "1",
        "type": "t_mapping(t_address,t_struct(ContactInfo)39307_storage)"
      }
    ],
    "types": {
      "t_address": {
        "encoding": "inplace",
        "label": "address",
        "numberOfBytes": "20"
      },
      "t_bool": {
        "encoding": "inplace",
        "label": "bool",
        "numberOfBytes": "1"
      },
      "t_bytes_storage": {
        "encoding": "bytes",
        "label": "bytes",
        "numberOfBytes": "32"
      },
      "t_mapping(t_address,t_struct(ContactInfo)39307_storage)": {
        "encoding": "mapping",
        "key": "t_address",
        "label": "mapping(address => struct SecureData.ContactInfo)",
        "numberOfBytes": "32",
        "value": "t_struct(ContactInfo)39307_storage"
      },
      "t_string_storage": {
        "encoding": "bytes",
        "label": "string",
        "numberOfBytes": "32"
      },
      "t_struct(ContactInfo)39307_storage": {
        "encoding": "inplace",
        "label": "struct SecureData.ContactInfo",
        "members": [
          {
            "astId": 39288,
            "contract": "contracts/SecureData.sol:SecureData",
            "label": "encryptedPhoneNumber",
            "offset": 0,
            "slot": "0",
            "type": "t_bytes_storage"
          },
          {
            "astId": 39290,
            "contract": "contracts/SecureData.sol:SecureData",
            "label": "encryptedEmailHash",
            "offset": 0,
            "slot": "1",
            "type": "t_bytes_storage"
          },
          {
            "astId": 39292,
            "contract": "contracts/SecureData.sol:SecureData",
            "label": "encryptedEmergencyContact",
            "offset": 0,
            "slot": "2",
            "type": "t_bytes_storage"
          },
          {
            "astId": 39294,
            "contract": "contracts/SecureData.sol:SecureData",
            "label": "encryptedIsComplete",
            "offset": 0,
            "slot": "3",
            "type": "t_bytes_storage"
          },
          {
            "astId": 39296,
            "contract": "contracts/SecureData.sol:SecureData",
            "label": "finalPhoneNumber",
            "offset": 0,
            "slot": "4",
            "type": "t_uint8"
          },
          {
            "astId": 39298,
            "contract": "contracts/SecureData.sol:SecureData",
            "label": "finalEmailHash",
            "offset": 1,
            "slot": "4",
            "type": "t_uint8"
          },
          {
            "astId": 39300,
            "contract": "contracts/SecureData.sol:SecureData",
            "label": "finalEmergencyContact",
            "offset": 2,
            "slot": "4",
            "type": "t_uint8"
          },
          {
            "astId": 39302,
            "contract": "contracts/SecureData.sol:SecureData",
            "label": "decrypted",
            "offset": 3,
            "slot": "4",
            "type": "t_bool"
          },
          {
            "astId": 39304,
            "contract": "contracts/SecureData.sol:SecureData",
            "label": "finalName",
            "offset": 0,
            "slot": "5",
            "type": "t_string_storage"
          },
          {
            "astId": 39306,
            "contract": "contracts/SecureData.sol:SecureData",
            "label": "finalEmail",
            "offset": 0,
            "slot": "6",
            "type": "t_string_storage"
          }
        ],
        "numberOfBytes": "224"
      },
      "t_uint8": {
        "encoding": "inplace",
        "label": "uint8",
        "numberOfBytes": "1"
      }
    }
  }
}